:020000040800F2
:10000000103000209D0100088107000879070008D2
:100010007D07000855070008E109000800000000FE
:1000200000000000000000000000000001080008BF
:100030005907000800000000910700082508000883
:10004000B7010008B7010008B7010008B7010008B0
:10005000B7010008B7010008B7010008B7010008A0
:10006000B7010008B7010008B7010008B701000890
:10007000B7010008B7010008B7010008B701000880
:10008000B7010008B7010008B7010008B701000870
:10009000B7010008B7010008B7010008B701000860
:1000A000B7010008B7010008B7010008B701000850
:1000B000B7010008B7010008B7010008B701000840
:1000C000B7010008B7010008B7010008B701000830
:1000D000B701000841090008B7010008B70100088E
:1000E000B7010008B7010008B7010008B701000810
:1000F000B7010008B7010008B7010008B701000800
:10010000B7010008B7010008B7010008B7010008EF
:10011000B7010008B7010008B7010008B7010008DF
:10012000B7010008B7010008B7010008B7010008CF
:10013000B7010008B7010008B7010008B7010008BF
:10014000B7010008B7010008B7010008B7010008AF
:10015000B7010008B7010008B7010008B70100089F
:10016000B7010008B7010008B7010008B70100088F
:10017000B7010008B7010008B7010008000000003F
:10018000B7010008B7010008DFF80CD000F03CFA16
:10019000004800476D0D00081030002006488047D9
:1001A00006480047FEE7FEE7FEE7FEE7FEE7FEE75C
:1001B000FEE7FEE7FEE7FEE74508000889010008C4
:1001C00040EA01039B0703D009E008C9121F08C0D9
:1001D000042AFAD203E011F8013B00F8013B521E59
:1001E000F9D27047D2B201E000F8012B491EFBD2D0
:1001F00070470022F6E710B513460A460446194632
:10020000FFF7F0FF204610BD30B50B460146002039
:100210002022012409E021FA02F59D4205D303FAC8
:1002200002F5491B04FA02F52844151EA2F1010249
:10023000F1DC30BD2DE9F05F0546002092469B467B
:1002400088460646814640241BE0284641464746EC
:10025000224600F000FA53465A46C01A914110D384
:1002600011461846224600F0E7F92D1A67EB0108FF
:100270004F4622460120002100F0DEF917EB00096D
:100280004E41201EA4F10104DFDC484631462A46D7
:100290004346BDE8F09F2DE9FE4F804681EA03000A
:1002A000C00F0C46009021F0004123F00045B8EB50
:1002B0000200A94105D24046214690461C460B4605
:1002C000024623F00040104347D0270DC7F30A0031
:1002D000C3F30A510290401A019040286BDAC3F32D
:1002E000130040F4801B0098924620B10023D2EB0B
:1002F000030A63EB0B0B01985946C0F140025046CC
:1003000000F09AF906460D4650465946019A00F00B
:10031000B2F910EB08006141002487EA115284EA27
:10032000E7731A4340D0009A62B3019A012A4FEA58
:10033000075215DC001B61EB02014FF0004202EA9C
:100340000752CDE90042001C41F5801132462B4690
:1003500000F0B2F903B0BDE8F08F40462146F9E75E
:10036000001B61EB0201001C41F5801300185B418A
:100370002018A2F5001747EB030140EAD570B61923
:100380006D4111E06D084FEA360645EAC0754FEA47
:100390000752001B61EB0201001C41F58011490866
:1003A0004FEA30000019514132462B4603B0BDE8F8
:1003B000F04F00F072B90098012240000023D0EB0A
:1003C000020263EBE073009821464FEAE074B8EB59
:1003D000000061EB0401E9E783F000435BE781F093
:1003E000004158E72DE9FE4F81EA030404F0004480
:1003F00021F0004100944FF0000B23F0004350EA3D
:1004000001045ED052EA03045BD0C3F30A54C1F383
:100410000A552C44A4F2F3340194A0FB0254C1F316
:10042000130141F48011C3F3130343F4801301FB60
:10043000024400FB034E840A970A44EA815447EAC7
:100440008357A4FB076802958D0A05FB07854FEAD1
:10045000932C04FB0C542705029D4FEA065847EAEB
:100460001637B5EB08056EEB070C870E920E47EAC0
:10047000811742EA8312A7FB0201B6EB0B0164EB82
:1004800000042B0D43EA0C335E1844EB1C50DA4693
:100490005146E7FB0201C5F313044FEA0B3343EA6D
:1004A00014534FEA0432019C43EA0603A4F10C04FE
:1004B0000294009CCDE900B400F0FEF803B0BDE862
:1004C000F08F00200146F9E72DE9F04D81EA0304A1
:1004D00004F0004B21F0004514464FF0000A23F0D1
:1004E000004150EA050220D054EA01021DD0C5F3B4
:1004F0000A570246C5F31303C1F31300C1F30A56AA
:1005000040F4801543F48013A7EB0608101BD64671
:1005100008F2FD3873EB050002D308F1010801E091
:1005200092185B41B8F1000F03DA00200146BDE8E4
:10053000F08D00204FF48011064684460EE0171B14
:1005400073EB050705D3121B63EB050306434CEA67
:10055000010C49084FEA300092185B4150EA01074C
:10056000EDD152EA030012D082EA040083EA0501C9
:10057000084305D0101BAB4106D20122002306E040
:1005800000224FF0004302E06FF0010253101AEB1B
:1005900006004CEB085110EB0A0041EB0B01BDE8E3
:1005A000F04D00F07AB8C1F30A52C1F3130140F2E2
:1005B000FF3341F480119A4202DA0020014670476D
:1005C00040F233439A42A2F2334202DC524200F03C
:1005D00042B800F031B8000030B5041E71F10004DB
:1005E00004DB4FF00044404264EB0101141E73F140
:1005F000000405DB1C464FF00043524263EB04034A
:10060000994208BF904230BD1CB509480090094886
:1006100001900546009C06E0E06840F0010394E884
:10062000070098471034AC42F6D3FFF7B1FD000045
:100630007841000898410008202A04DB203A00FA9B
:1006400002F1002070479140C2F1200320FA03F329
:10065000194390407047202A04DB203A21FA02F027
:100660000021704721FA02F3D040C2F120029140EC
:10067000084319467047202A06DBCB17203A41FA77
:1006800002F043EAE07306E041FA02F3D040C2F11F
:100690002002914008431946704710B5141E73F1AB
:1006A000000408DA401C41F1000192185B411A4332
:1006B00001D120F0010010BD2DE9F04D92469B467E
:1006C00011B1B1FA81F202E0B0FA80F22032904624
:1006D000FFF7B2FF04460F4640EA0A0041EA0B0169
:1006E00053465A46084313D0114653EA010019D025
:1006F000C8F140025046FFF7AEFF05460E46504691
:1007000059464246FFF798FF084305D0012004E010
:1007100020463946BDE8F08D0020054346EAE076E4
:100720002C4337430A986305E40AA0EB0800002233
:10073000FD0A44EA47540A3002D500200146E9E7A1
:10074000010510196941DDE9084500196941BDE855
:10075000F04DA2E7FFE7FEE7FFE7FEE780B54FF4C5
:10076000406001F0A1FB0020C4F20200002201233E
:10077000114600F0ADF980BDFFE7FEE7FFE7FEE7B9
:10078000FFE7FEE70000000000000000000000009E
:10079000EFF30980BFF36F8F154B1A681EF0100F2F
:1007A00008BF20ED108A20E9F04F10602DE9090004
:1007B0004FF0100080F31188BFF34F8FBFF36F8F9E
:1007C00002F000FA4FF0000080F31188BDE8090044
:1007D00019680868B0E8F04F1EF0100F08BFB0ECC1
:1007E000108A80F30988BFF36F8F704700BF00BF86
:1007F000B400002000000000000000000000000025
:10080000074B19680868B0E8F04F80F30988BFF318
:100810006F8F4FF0000080F31188704700BF00BF5A
:10082000B400002080B54EF21000CEF20000006847
:1008300002F0BAFC012803D0FFE702F06FFAFFE7ED
:1008400080BD000080B582B04EF68851CEF2000126
:10085000086840F47000086043F60001C4F2020129
:10086000086840F001000860FFE743F60000C4F2AA
:10087000020000688007002801D4FFE7F5E7FFE7E2
:1008800043F60801C4F20201086840F080000860E5
:1008900000200190FFE701984F2805D8FFE7FFE708
:1008A000019801300190F6E743F60801C4F2020115
:1008B000086840F09000086000200190FFE7019870
:1008C0004F2805D8FFE7FFE7019801300190F6E7D0
:1008D000FFE743F60801C4F20201086820F00300B4
:1008E000086043F60002C4F2020210684FF6FF737C
:1008F000CFF6F66318401060106820F48020106076
:1009000000200860FFE743F60800C4F20200006818
:10091000012008B9FFE7F6E743F60401C4F202013B
:1009200043F21000C2F20040086043F60C01C4F22A
:1009300002010020086001F0E9FB02B080BD000068
:1009400080B584B041F20000C4F2010040F20531EC
:10095000C0F2050101F0ACFD012818D1FFE741F21A
:100960000000C4F2010001F0C5FCADF80E009DF8D6
:100970000E0042F23871C2F200010B6842F23852A6
:10098000C2F20002D054086801300860FFE741F26B
:100990000000C4F2010040F20431C0F2040101F091
:1009A00087FD01281AD1FFE741F20000C4F20100DF
:1009B00001F0A0FC42F23871C2F2000101910B6813
:1009C00042F23850C2F2000000220292C25409687A
:1009D00000F0A2F9019902980860FFE704B080BD19
:1009E000FFE7FEE780B582B0019000919DF804001A
:1009F00000F09EF9019802B080BD000086B005901D
:100A0000049103920598006A01900598406A00904D
:100A10000020ADF80A00FFE7BDF80A00072821D83A
:100A2000FFE7BDF80A100398C840C00798B1FFE778
:100A3000BDF80A0081000F2000FA01F101988843F7
:100A400001900498BDF80A10890000FA01F101989C
:100A500008430190FFE7FFE7BDF80A000130ADF859
:100A60000A00D9E70820ADF80A00FFE7BDF80A0040
:100A70000F2825D8FFE7BDF80A100398C840C00723
:100A8000B8B1FFE7BDF80A006FF01F0101EB80026B
:100A90000F2000FA02F20098904300900498BDF8ED
:100AA0000A2001EB820100FA01F10098084300904E
:100AB000FFE7FFE7BDF80A000130ADF80A00D5E70F
:100AC00001980599086200980599486206B0704738
:100AD00087B00690059104920393069800680190F0
:100AE0000698C06800900020ADF80A00FFE7BDF846
:100AF0000A000F2832D8FFE7BDF80A100398C84053
:100B0000C00720B3FFE7BDF80A004100032000FA48
:100B100001F20199914301910599BDF80A20520013
:100B200001FA02F2019911430191BDF80A1049003E
:100B300000FA01F10098884300900498BDF80A106B
:100B4000490000FA01F1009808430090FFE7FFE731
:100B5000BDF80A000130ADF80A00C8E7019806990F
:100B6000086000980699C86007B0704786B0059085
:100B70008DF81310039202939DF81300012806D1FB
:100B8000FFE7029A059948681043486005E0029A19
:100B90000599486890434860FFE705988068009091
:100BA0000020ADF80600FFE7BDF806000F2821D8A9
:100BB000FFE7BDF806100298C840C00798B1FFE7EC
:100BC000BDF806004100032000FA01F100988843B7
:100BD00000900398BDF80610490000FA01F1009852
:100BE00008430090FFE7FFE7BDF806000130ADF8CD
:100BF0000600D9E700980599886006B070470000A4
:100C00007047000080B592B041F20000C4F20100CC
:100C1000119041F20410109025200F904FF4406283
:100C20000E920021C4F202010D914FF400700C905D
:100C300007200B900A9209914FF480610891079068
:100C40004FF4E1300690002000900590049003904E
:100C50000290BDF8380001F027F9BDF8280001F036
:100C600023F9009A0D980C9B02210191FFF730FFA8
:100C7000009A01990998089BFFF72AFF0D980B9994
:100C80000C9AFFF7BBFE09980799089AFFF7B6FE82
:100C90000099019A0D980C9BFFF768FF0099019A43
:100CA0000998089BFFF762FFBDF8400001F0FCF8CF
:100CB000119801F033FB1198069901F057FA119839
:100CC000059901F025FC1198049901F06DFC11982B
:100CD000039901F043FC1198029901F0F3FA11987D
:100CE000082101F04BFC1198042101F021FC019A2C
:100CF0009DF83C00114600F055F8119840F205317E
:100D000001F0C4FB11984FF4417101F0BFFB119841
:100D100001F094FB12B080BD80B582B001900091CB
:100D200044F24D10C0F6000002F088FD02B080BD14
:100D300080B582B08DF807009DF8071041F20000E1
:100D4000C4F2010001F0DEFAFFE741F20000C4F254
:100D50000100072101F07CFB08B9FFE7F5E702B0CD
:100D600080BD000080B5FFF74DFF80BD80B584B029
:100D70000023039340F22C50C2F200006946486001
:100D80000320086041F62170C0F6000044F25C11B7
:100D9000C0F60001802202F075F901F0A9FEFFE71C
:100DA000FEE7000080B584B08DF80F008DF80E10BE
:100DB0008DF80D2000200290019000904EF60C500E
:100DC000CEF20000006800F4E060B0F5E06F05D1FD
:100DD000FFE700200190042000904AE04EF60C50FE
:100DE000CEF20000006800F4E060B0F5C06F05D1FD
:100DF000FFE7012001900320009039E04EF60C50EF
:100E0000CEF20000006800F4E060B0F5A06F04D1FD
:100E1000FFE702200190009029E04EF60C50CEF240
:100E20000000006800F4E060B0F5806F05D1FFE7D6
:100E3000032001900120009018E04EF60C50CEF2F5
:100E40000000006800F4E060B0F5407F05D1FFE7E6
:100E5000042001900020009007E04FF4A06000F013
:100E600035F8022001900090FFE7FFE7FFE7FFE77A
:100E7000FFE79DF80E000199C1F10401884002903E
:100E80009DF80D000099C1F104020F21D1400140ED
:100E900002980843029002980001029002989DF87F
:100EA0000F104EF20042CEF2000288549DF80F203F
:100EB00002F01F01012088401C2101EAD2014EF2FC
:100EC0000012CEF20002885004B080BD81B00090C4
:100ED00000980021C0F2FA5108434EF60C51CEF2B0
:100EE0000001086001B0704780B586B0059004919C
:100EF00042F60040C2F200000068029040F2B400E6
:100F0000C2F200000068043001F05EFB08B9FFE7A0
:100F100000E0FFE70598013018BBFFE7049800B335
:100F2000FFE742F6D831C2F2000148680190019A09
:100F300040F2B400C2F2000003689A60019A92681D
:100F40000368DA6002680432019B9B685A60026899
:100F50000432019B9A6000684161086801300860B2
:100F60003DE00298059908440390039840F2B401CB
:100F7000C2F20001096848600398029988420ED2C3
:100F8000FFE740F2C400C2F20000006840F2B40182
:100F9000C2F200010968043101F08CFB1EE040F24E
:100FA000BC00C2F20000006840F2B401C2F20001CD
:100FB0000968043101F07EFB039842F6A431C2F2C5
:100FC00000010968884207D2FFE7039842F6A4317E
:100FD000C2F20001086000E0FFE7FFE7FFE706B0AC
:100FE00080BD000080B582B0019001F0C1FB42F2EB
:100FF0003C71C2F2000108680130086040F2B400A0
:10100000C2F20000006898B9FFE7019840F2B4010D
:10101000C2F20001086042F23C70C2F200000068B7
:10102000012803D1FFE700F067FA00E0FFE71CE0CA
:1010300042F6CC30C2F200000068A0B9FFE740F2EF
:10104000B400C2F200000068C06A0199C96A88420F
:1010500007D8FFE7019840F2B401C2F2000108602E
:1010600000E0FFE700E0FFE7FFE742F24870C2F26E
:10107000000001680131016000680199486401982D
:10108000C06A42F24C71C2F200010968884208D974
:10109000FFE70198C06A42F24C71C2F20001086099
:1010A000FFE70198C06A00EB800040F2CC01C2F279
:1010B000000101EB8000406800900098019A906068
:1010C00000988068019AD06001980430009A926874
:1010D000506001980430009A9060019AD06A00EB49
:1010E000800001EB800050610198C06A00EB800233
:1010F00051F82200013041F8220001F051FB42F684
:10110000CC30C2F200000068C8B1FFE740F2B40082
:10111000C2F200000068C06A0199C96A88420CD214
:10112000FFE74EF60451CEF200014FF08050086008
:10113000BFF34F8FBFF36F8F00E0FFE700E0FFE7E3
:1011400002B080BD80B584B001F012FB42F60440CD
:10115000C2F20000006878BBFFE742F64830C2F2F6
:101160000000029001F086FA42F65C30C2F2000004
:10117000039001F07FFA0299039840F2B802C2F29C
:101180000002116040F2C801C2F200010860694625
:101190000020086040F21002C2F2000240F2600338
:1011A000C2F200030520102101F0D6FD42F60441F1
:1011B000C2F20001086000E0FFE701F0F1FA04B0BC
:1011C00080BD000080B582B0FFE742F24070C2F2FD
:1011D0000000006808B3FFE701F0CAFA42F6EC30FD
:1011E000C2F20000C068C06801900198043001F0AC
:1011F000EBF942F23C71C2F2000108680138086064
:1012000042F24071C2F2000108680138086001F042
:10121000C7FA019800F026F8D7E702B080BD0000B9
:1012200080B582B0019000910198006CB8B1FFE7E1
:101230000199C8680A6C1044C86001988168C06848
:10124000884204D3FFE701990868C86000E0FFE71F
:101250000098019AD168126CFEF7B2FFFFE702B066
:1012600080BD000080B582B00190019890F85900CF
:1012700040B9FFE70198006B01F0A6FA019801F070
:10128000A3FA0BE0019890F85900012804D1FFE778
:10129000019801F099FA00E0FFE7FFE702B080BD96
:1012A00082B0019040F2B800C2F20000006800680D
:1012B000B0FA80F04009019908600198006848B9C7
:1012C000FFE740F2B800C2F200000068C0680068A2
:1012D000009002E000200090FFE7009802B0704705
:1012E00084B04FF40050009040F23850C2F2000039
:1012F00001909DF80400400788B1FFE7019807308E
:101300000190019820F007000190019A40F23851B5
:10131000C2F200010098891A08440090FFE7019882
:101320000290029942F6D030C2F200000160002122
:1013300041600298009A1044019001980838019089
:10134000019820F007000190019A40F2C000C2F21B
:101350000000026002685160026811600299039106
:101360000199039A891A51600068039908600398EB
:10137000406842F6A031C2F200010860039840685C
:1013800042F69831C2F20001086004B070470000D4
:1013900080B582B00190FFE7FFF714FF40F2CC0068
:1013A000C2F20000006802280CD3FFE74EF6045199
:1013B000CEF200014FF080500860BFF34F8FBFF3B3
:1013C0006F8F00E0FFE7E7E780B584B0DDF818C075
:1013D0000390029101928DF80330029818B9FFE74B
:1013E0000698006003E0019806990860FFE70398FB
:1013F0000699C8630298069908640698012101F0CD
:10140000E1FC9DF80300069981F84C0004B080BD12
:1014100080B586B0DDF82CC0DDF828C0DDF824C02A
:10142000DDF820C005900491039202930A98006BA6
:1014300003998900A522FEF7D5FE0A98006B03994F
:1014400000EB810004380190019820F00700019022
:101450000498F8B1FFE700200090FFE700980F28FC
:1014600013D8FFE70498009A805C0A99114481F828
:10147000340004980099405C08B9FFE705E0FFE7F5
:10148000FFE7009801300090E8E70A99002081F812
:10149000430000E0FFE70898382803D3FFE7372030
:1014A000089000E0FFE708980A99C86208980A992E
:1014B000C8640A98043001F0F5F80A98183001F071
:1014C000F1F80A9800610898C0F138000A9988611B
:1014D0000A98406201980599029A00F003FC0A9963
:1014E0000860099820B1FFE70A980999086000E0B0
:1014F000FFE706B080BD000080B584B000200390F7
:10150000FFE70398372810D8FFE7039800EB800126
:1015100040F2CC00C2F2000000EB810001F0AAF81A
:10152000FFE7039801300390EBE742F67030C2F218
:101530000000019001F09EF842F68430C2F20000F3
:10154000029001F097F842F6B830C2F2000001F0C4
:1015500091F842F6EC30C2F2000001F08BF842F64E
:10156000D830C2F2000001F085F80199029840F2EB
:10157000BC02C2F20002116040F2C401C2F20001DA
:10158000086004B080BD000083B0029042F6D03005
:10159000C2F200000190FFE70198006802998842BA
:1015A00005D2FFE7FFE7019800680190F4E7019892
:1015B000009000980199496808440299884209D12D
:1015C000FFE7029842680199486810444860019812
:1015D000029000E0FFE702980090009802994968A5
:1015E000084401990968884220D1FFE70198006802
:1015F00040F2C001C2F20001096888420DD0FFE745
:10160000019800684268029948681044486001984F
:10161000006800680299086007E040F2C000C2F26A
:101620000000006802990860FFE704E00198006884
:1016300002990860FFE701980299884204D0FFE709
:1016400002980199086000E0FFE703B070470000CE
:1016500080B586B00590049103920293002001901A
:101660000498059948600598006104980399884298
:1016700016D8FFE703980299401A059989698842AC
:1016800003D3FFE70120019009E040F2C800C2F255
:10169000000000680599043101F00CF8FFE717E03D
:1016A00003980299884208D2FFE704980299884279
:1016B00003D3FFE70120019009E040F2B800C2F235
:1016C000000000680599043100F0F4FFFFE7FFE730
:1016D000019806B080BD000080B582B0019001F095
:1016E00047F80198806B18B9FFE70120009002E0ED
:1016F00000200090FFE701F053F8009802B080BD91
:1017000008480068006880F308884FF0000080F304
:10171000148862B661B6BFF34F8FBFF36F8F00DFDF
:1017200000BF000008ED00E080B584B00390029196
:1017300040F2B800C2F200000068C068C0680190C2
:101740000198043000F040FF019890F8280040070D
:10175000002806D5FFE701980399029A00F0FEF8E9
:1017600007E0019991F8280000F0FE0081F82800B8
:10177000FFE70198016A884704B080BD80B58AB050
:10178000FFE742F60440C2F20000006806A900220A
:1017900001F080FB002800F09180FFE70698B0F18F
:1017A000FF3F09DCFFE706A80430029002990A68AF
:1017B00048688968904700E0FFE70698002800F134
:1017C0007C80FFE7089805900598406928B1FFE7FD
:1017D0000598043000F0F8FE00E0FFE704A800F0F0
:1017E000F5F803900698013801460191082862D85F
:1017F0000199DFE801F00505323A4C0505323A005F
:10180000059991F8280040F0010081F8280005981A
:10181000079B81691944039AFFF71AFFD8B1FFE7C4
:10182000059890F828004007002808D5FFE705989C
:10183000079982691144039A00F090F807E005992E
:1018400091F8280000F0FE0081F82800FFE70598D5
:10185000016A884700E0FFE72EE0059991F828002B
:1018600000F0FE0081F8280026E0059991F8280094
:1018700040F0010081F828000798059988610598D3
:10188000039B816919441A46FFF7E2FE14E00598AC
:1018900090F828008007002804D4FFE7059800F09E
:1018A00093FF07E0059991F8280000F0FE0081F809
:1018B0002800FFE700E0FFE7FFE762E70AB080BD2E
:1018C00080B584B00390029101F074F9684600F08D
:1018D0007DF801900098D8BBFFE7029860B9FFE758
:1018E00003980199884207D8FFE701F065FE039845
:1018F0000199FFF719FF2AE0029858B1FFE740F27B
:10190000C800C2F2000000680068B0FA80F0400928
:101910000290FFE742F60440C2F20000006803991B
:10192000019A891A029A00F0ADFF01F045FE60B9F4
:10193000FFE74EF60451CEF200014FF080500860F0
:10194000BFF34F8FBFF36F8F00E0FFE7FFE702E0C9
:1019500001F032FEFFE704B080BD000080B584B026
:10196000039002910192FFE70398029B8169194459
:10197000019AFFF76DFE48B1FFE70398816902986D
:10198000084402900398016A8847EDE704B080BDDF
:1019900040F2BC00C2F200000068006840B9FFE7F6
:1019A00042F6A431C2F200014FF0FF3008600CE0B3
:1019B00040F2BC00C2F200000068C068006842F655
:1019C000A431C2F200010860FFE7704780B582B021
:1019D000019001F005FC0090009840F2B001C2F2C5
:1019E00000010968884206D2FFE700F011F801996A
:1019F0000120086003E0019900200860FFE70098DB
:101A000040F2B001C2F200010860009802B080BD4F
:101A100080B582B0FFE740F2B800C2F20000006873
:101A2000006870B1FFE740F2B800C2F20000006841
:101A3000C0680068019001984FF0FF31FFF774FE15
:101A4000E9E740F2B802C2F200021068009040F2EA
:101A5000C801C2F20001086810600098086002B076
:101A600080BD000082B0002000904FF0100080F395
:101A70001188BFF36F8FBFF34F8F0190FFE700987E
:101A800008B9FFE7FBE702B07047000080B584B0FB
:101A90000390FFE701A8FFF703FC02900298019969
:101AA000FFF70EFFFFF76AFEF4E7000080B582B093
:101AB000019000F05DFE019890F845008DF803005C
:101AC000FFE79DF90300012816DBFFE70198406A54
:101AD00058B1FFE70198243001F0B0FC18B1FFE7DE
:101AE00000F0BAFF00E0FFE700E005E09DF803002A
:101AF00001388DF80300E4E70199FF2081F84500E3
:101B000000F04EFE00F034FE019890F844008DF88D
:101B10000200FFE79DF90200012816DBFFE70198AC
:101B2000006980B1FFE70198103001F087FC18B11F
:101B3000FFE700F091FF00E0FFE79DF802000138A9
:101B40008DF8020000E000E0E4E70199FF2081F851
:101B5000440000F025FE02B080BD000080B588B0D2
:101B600007900020039001F025F840F2C000C2F277
:101B70000000006818B9FFE7FFF7B2FB00E0FFE7DD
:101B80000798A8B1FFE7079800F00700C0F1100020
:101B9000029007980299C943884205D8FFE7029945
:101BA00007980844079002E000200790FFE700E054
:101BB000FFE79DF81F000006002800F18C80FFE77A
:101BC0000798002800F08580FFE7079842F69831D3
:101BD000C2F20001096888427BD8FFE742F6D030A4
:101BE000C2F20000059000680690FFE70698416881
:101BF000079A00209142019007D2FFE706980068FB
:101C0000002818BF01200190FFE70198C00730B1FC
:101C1000FFE706980590069800680690E6E70698A4
:101C200040F2C001C2F20001096888424FD0FFE7CC
:101C300005980068083003900698006805990860C8
:101C4000069840680799401A112811D3FFE70698B3
:101C5000079908440490069840680799401A049927
:101C600048600798069948600498FFF78DFC00E0EB
:101C7000FFE70698426842F69830C2F20000016819
:101C8000891A0160006842F6A031C2F200010968B9
:101C900088420BD2FFE742F69830C2F2000000689B
:101CA00042F6A031C2F20001086000E0FFE70699A9
:101CB000486840F00040486006990020086042F6FD
:101CC000AC31C2F2000108680130086000E0FFE7B3
:101CD00000E0FFE700E0FFE701F06EFC039808B0CA
:101CE00080BD000083B002900191009202980438F8
:101CF000029002994FF080700860029804380290B8
:101D0000019820F0010002990860029804380290BE
:101D1000029941F66520C0F6000008600298143868
:101D20000290009802990860029804380290029983
:101D30006FF002000860029820380290029803B009
:101D40007047000098B08DF85F000020159040F2B9
:101D50000671C0F60811099140F20121C0F2034159
:101D6000089107900690059104900391029043F624
:101D70000800C4F202000068C0F3810016901698B3
:101D8000019040B1FFE7019801280AD0FFE70198D0
:101D900002280CD03EE042F20040C0F2F400149061
:101DA0003EE041F20020C0F27A00149038E043F6A1
:101DB0000400C4F20200016801F03F0110910168C3
:101DC000C1F388110F91016801F44032022101EB47
:101DD000D2310D91006800F480000E900E98B0F59D
:101DE000800F06D1FFE741F20020C0F27A000C908C
:101DF00005E042F20040C0F2F4000C90FFE70C98BE
:101E00001099B0FBF1F00F9948430D99B0FBF1F038
:101E1000149005E042F20040C0F2F4001490FFE795
:101E200043F60800C4F202000168C9B209090B9127
:101E30000B9A06A9895C0A9114990A9AD1401391C8
:101E40000168C1F382210B910B9A04A9895C0A9164
:101E500013990A9AD1401291006880B2400B0B90FE
:101E60000B9902A8405C0A9013980A99C8401190F7
:101E70009DF85F0001460091032810D80099DFE823
:101E800001F00205080B1498159009E013981590BD
:101E900006E01298159003E01198159000E0FFE716
:101EA000159818B07047000081B0ADF80200BDF879
:101EB000020000F01F02012101FA02F3810943F63A
:101EC0000002C4F2020288581843885001B07047DB
:101ED00081B0ADF80200BDF8020000F01F02012140
:101EE00001FA02F3810943F60002C4F202028858A3
:101EF0009843885001B0704781B0ADF80200BDF83A
:101F0000020000F01F02012101FA02F3810943F6E9
:101F10000002C4F2020288581843885001B070478A
:101F200080B584B0FEF71EFFFEF76AFEFEF716FCD2
:101F300044F24410C0F6000001F080FC40F2305042
:101F4000C2F20000694648600320086042F21510A2
:101F5000C0F6000044F25011C0F600018022029247
:101F60000023039301F08EF8029A039B40F2345051
:101F7000C2F20000694648600420086042F2411045
:101F8000C0F6000044F25611C0F6000101F07AF8E4
:101F900040F22C50C2F20000006800F0CBFC04B00C
:101FA00080BD000082B00020019043F60001C4F221
:101FB0000201086840F480300860FFE743F6000043
:101FC000C4F20200016800208903002900900AD4AD
:101FD000FFE70198411C01914FF6FF71401A18BFAD
:101FE00001200090FFE70098C00708B1FFE7E5E790
:101FF00043F60000C4F202000068800300280CD4FD
:10200000FFE7FFE743F60000C4F202000068800328
:10201000002801D4FFE7F5E7FFE743F64001C4F2EB
:102020000201086840F08050086047F20001C4F2E5
:102030000001086840F44040086043F60801C4F21B
:10204000020108680860086840F4004008600868F9
:1020500040F4A050086043F60401C4F2020145F2C6
:102060000840C0F24070086043F60001C4F202016B
:10207000086840F080700860FFE743F60000C4F293
:10208000020000688001002801D4FFE7F5E747F26D
:102090000001C4F20001086840F480300860FFE7E6
:1020A00047F20400C4F200000068C003002801D415
:1020B000FFE7F5E747F20001C4F20001086840F4C9
:1020C00000300860FFE747F20400C4F20000006837
:1020D0008003002801D4FFE7F5E743F60801C4F2C6
:1020E0000201086820F003000860086840F0020060
:1020F0000860FFE743F60800C4F20200006800072A
:10210000002801D4FFE7F5E702B0704780B5FFF77C
:1021100049FF80BD80B582B000208DF80700FFE741
:102120009DF80710481C8DF8070044F22E10C0F6E9
:10213000000001F083FB4FF47A7000F0D5FBEFE76D
:1021400080B582B000208DF80700FFE79DF80710EA
:10215000481C8DF8070044F23910C0F6000001F069
:102160006DFB4FF47A7000F0BFFBEFE780B588B0ED
:102170000790069100200590049003900290079824
:10218000019044F20041C4F20001884242D0FFE7CE
:10219000019844F60001C4F2000188423FD0FFE7F5
:1021A000019844F60041C4F2000188423CD0FFE7A8
:1021B000019845F20001C4F20001884239D0FFE7DE
:1021C000019847F60001C4F20001884236D0FFE7CB
:1021D000019847F60041C4F20001884233D0FFE77E
:1021E000019841F20001C4F20101884208D0FFE7E2
:1021F000019841F20041C4F20101884205D027E074
:102200000320FFF79FFD059023E00320FFF79AFDD1
:1022100005901EE00220FFF795FD059019E00220D1
:10222000FFF790FD059014E00220FFF78BFD05906D
:102230000FE00220FFF786FD05900AE00220FFF77D
:1022400081FD059005E00220FFF77CFD059000E090
:10225000FFE70798C0680004002819D5FFE7059834
:102260004000069900EB5100B0FBF1F0029002989B
:102270004FF6F071084004900298C0F342000390BA
:10228000BDF81000BDF80C1008430799886017E0EE
:102290000598069900EB5100B0FBF1F0029002980E
:1022A0004FF6F07108400490029800F00F00039080
:1022B000BDF81000BDF80C10084307998860FFE7CF
:1022C00008B080BD83B00290019100200090029878
:1022D000D0F880000090009820F4006000900199F0
:1022E00000980843009000980299C1F8800003B05C
:1022F0007047000081B00090009840686FF35F2045
:1023000001B0704782B00190ADF80210BDF8020034
:102310006FF35F200199486002B0704780B58AB0C2
:1023200009900998089044F20041C4F200018842E3
:1023300041D0FFE7089844F60001C4F2000188424A
:1023400042D0FFE7089844F60041C4F200018842F9
:102350004CD0FFE7089845F20001C4F20001884222
:102360004DD0FFE7089847F60001C4F2000188420B
:102370004ED0FFE7089847F60041C4F200018842BA
:102380004FD0FFE7089841F20001C4F201018842F2
:1023900008D0FFE7089841F20041C4F201018842E9
:1023A0001BD047E040F604100790FFF7A5FD079803
:1023B000FFF78EFD3FE040F611000690FFF79CFD11
:1023C0000698FFF785FD36E040F612000590FFF70E
:1023D00093FD0598FFF77CFD2DE040F60510049075
:1023E000FFF78AFD0498FFF773FD24E040F6130021
:1023F0000390FFF781FD0398FFF76AFD1BE040F6AD
:1024000014000290FFF778FD0298FFF761FD12E0DB
:1024100040F61E000190FFF76FFD0198FFF758FD91
:1024200009E040F61F000090FFF766FD0098FFF7F7
:102430004FFD00E0FFE70AB080BD000081B00090D2
:102440000099C86840F40050C86001B070470000AF
:1024500083B00190ADF802100198BDF8021089090F
:102460004058BDF8021001F01F01C840C00720B15C
:10247000FFE701208DF80B0003E000208DF80B0032
:10248000FFE79DF80B0003B07047000082B0019099
:10249000ADF80210BDF8020000F01F02012101FAA0
:1024A00002F30199820988581843885002B0704796
:1024B00085B0039002910020019000900398BDF830
:1024C000081089094058029901F01F02012101FA00
:1024D00002F2104001900398029A920D8058029ADD
:1024E000C2F30442914008400090009838B1FFE7E1
:1024F000019820B1FFE701208DF8130003E00020D0
:102500008DF81300FFE79DF8130005B07047000039
:1025100082B0019000910199C86820F4C060C86041
:10252000009A0199C8681043C86002B07047000063
:1025300083B002900191002000900298C068009042
:10254000009820F004000090019900980843009042
:1025500000980299C86003B07047000082B00190F3
:1025600000910199086920F440500861009A01998E
:1025700008691043086102B07047000083B0029000
:102580000191002000900298C0680090009820F00F
:102590000800009001990098084300900098029963
:1025A000C86003B07047000082B0019000910199AB
:1025B000C86820F48050C860009A0199C868104328
:1025C000C86002B07047000082B0019001980069B5
:1025D000009001984168806888600199486889681E
:1025E0004860009840680199884205D1FFE701984A
:1025F00080680099486000E0FFE7019900200861C9
:1026000000990868013808600098006802B07047B7
:1026100083B0029001910092029942F65010C2F2EA
:1026200000000860019942F25070C2F20000086098
:1026300000998020086003B07047000083B00290CA
:1026400001910092029942F6EC20C2F2000008606B
:10265000019942F6AC10C2F20000086000995020C7
:10266000086003B07047000082B00190009102B092
:102670007047000081B00090009901F108004860A7
:1026800000994FF0FF308860009901F10800C860A0
:10269000009901F10800086100990020086001B06C
:1026A0007047000081B0009000990020086101B0DF
:1026B0007047000084B00390029102980068009077
:1026C0000098013020B9FFE703980069019010E0FD
:1026D000039808300190FFE701984068006800996E
:1026E000884205D8FFE7FFE7019840680190F3E7CB
:1026F000FFE7019840680299486002984168886045
:10270000019802998860029801994860039802999B
:102710000861039908680130086004B07047000040
:1027200083B002900191029840680090009801994E
:1027300048600098806801998860019800998968CC
:10274000486001980099886002980199086102998F
:1027500008680130086003B070470000DFF80C0023
:10276000016841F4700101607047000088ED00E0ED
:1027700081B04FF0100080F31188BFF36F8FBFF36B
:102780004F8F009040F20800C2F200000168013152
:1027900001600068012801D1FFE7FFE701B0704741
:1027A00081B040F20800C2F2000001680139016006
:1027B000006830B9FFE700200090009880F311888E
:1027C000FFE701B07047000080B584B00390039824
:1027D0000290039888B3FFE70298083802900298A5
:1027E00001900198C1790020B0EBD11F23D0FFE701
:1027F00001980068E8B9FFE70199486820F00040B7
:10280000486000F0D7F90198426842F69831C2F268
:1028100000010868104408600198FEF7B5FE42F612
:10282000B031C2F2000108680130086000F0C4FE57
:1028300000E0FFE700E0FFE7FFE704B080BD000035
:102840004EF21001CEF20001002008604EF2180294
:10285000CEF20002106040F20400C2F200000068F4
:1028600044F6D352C1F26202A0FB02024FF0FF30E5
:1028700000EB92104EF21402CEF20002106007201C
:102880000860704780B584B003900291019203986C
:102890000090FFF76DFF009890F94400013028B9CF
:1028A000FFE70099002081F84400FFE7009890F9C5
:1028B0004500013028B9FFE70099002081F8450064
:1028C000FFE7FFF76DFF0098806B38B9FFE70098CE
:1028D00024300299019A00F0DBF800E0FFE700984D
:1028E000FFF7E4F804B080BD80B582B0019000200D
:1028F0000090019850B1FFE700F05CF901980021C9
:10290000FEF7F2FA00F058FE009000E0FFE70098B2
:1029100060B9FFE74EF60451CEF200014FF080504F
:102920000860BFF34F8FBFF36F8F00E0FFE702B087
:1029300080BD000080B584B00390FFF719FF0398B5
:1029400038B9FFE740F2B400C2F20000006801901D
:1029500002E003980190FFE701980290029804308A
:10296000FFF732FE08B9FFE700E0FFE70298806A50
:1029700028B1FFE702981830FFF726FE00E0FFE7D6
:1029800042F24871C2F20001086801300860029802
:1029900040F2B401C2F200010968884210D1FFE799
:1029A0000298011D42F6EC30C2F20000FFF7B8FEBB
:1029B00042F24071C2F2000108680130086009E08B
:1029C00042F23C71C2F20001086801380860FEF76B
:1029D000DFFFFFE7FFF7E4FE029840F2B401C2F226
:1029E00000010968884204D0FFE70298FEF73AFC2C
:1029F000FFE742F6CC30C2F200000068B8B1FFE752
:102A0000029840F2B401C2F20001096888420CD178
:102A1000FFE74EF60451CEF200014FF080500860FF
:102A2000BFF34F8FBFF36F8F00E0FFE7FFE704B006
:102A300080BD000081B0009042F6A830C2F20000D4
:102A400000680099086042F60040C2F20000006889
:102A50000099486001B0704742F60C41C2F2000193
:102A6000012008607047000080B582B0019000919D
:102A7000019840F2B401C2F2000109681831FFF771
:102A800019FE00980121FEF72FFA02B080BD000068
:102A900080B584B003900291019203984068009041
:102AA000009840F2B401C2F200010A68D0610098B7
:102AB00080680A68106208681830009A926850604E
:102AC00008681830009A9060039809688862039932
:102AD000086801300860019820B1FFE74FF0FF302F
:102AE0000290FFE702980199FEF7FEF904B080BD5D
:102AF00080B58AB0002004900790069007A806A928
:102B000005AAFFF785FD049B059A0699DDF81CC010
:102B10006846C0F808C04160036041F29130C0F6D9
:102B2000000044F26711C0F6000100F0FFFA014610
:102B300042F69C30C2F200000160006818B1FFE765
:102B40000120089002E000200890FFE70898012883
:102B500004D1FFE700F036FE089000E0FFE7089898
:102B600001281FD1FFE74FF0100080F31188BFF359
:102B70006F8FBFF34F8F099042F6A431C2F200016C
:102B80004FF0FF30086042F6CC31C2F20001012064
:102B9000086042F60041C2F200010020086000F027
:102BA00093F800E0FFE744F27410C0F600000068FC
:102BB0000AB080BD42F24471C2F2000108680130DF
:102BC0000860704780B584B042F24470C2F20000E1
:102BD000006838B1FFE742F60C41C2F20001012063
:102BE00008606FE042F60C41C2F20001002008606C
:102BF00040F2B400C2F200000068006B03904FF096
:102C0000A530029003980068B0F1A53F12D1FFE70C
:102C100003984068B0F1A53F0CD1FFE703988068A6
:102C2000B0F1A53F06D1FFE70398C068B0F1A53F1A
:102C30000AD0FFE740F2B401C2F200010868096857
:102C40003431FFF711FDFFE742F24C70C2F2000091
:102C500000680190FFE7019800EB800140F2CC0092
:102C6000C2F2000050F8210020B9FFE701980138B6
:102C70000190F0E7019800EB800140F2CC00C2F235
:102C8000000000EB810000900099486840684860AF
:102C9000009948680831884205D1FFE700994868E3
:102CA00040684860FFE700984068C06840F2B4019F
:102CB000C2F200010860019842F24C71C2F20001B8
:102CC0000860FFE704B080BD80B582B04EF62051A9
:102CD000CEF20001086840F47F000860086840F008
:102CE0007F400860FFF7ACFD40F20801C2F200012E
:102CF000002001900860FFF731FD4EF63471CEF2EE
:102D00000001086840F040400860FEF7F9FCFFF75A
:102D100059FFFEF7A7FE019802B080BD80B582B0D2
:102D20004FF0100080F31188BFF36F8FBFF34F8F08
:102D3000009000F05FFA40B1FFE74EF60451CEF28A
:102D400000014FF080500860FFE7002001900198DB
:102D500080F3118802B080BD80B588B084460A989F
:102D6000CDF81CC00691059204938DF80F00002049
:102D70000290079810B3FFE70498F8B1FFE70598B1
:102D800018B1FFE70698C8B1FFE7059818B9FFE743
:102D9000069898B9FFE7049802900299012081F8FB
:102DA000460007980699059A9DF80F30DDF808C08F
:102DB000EE46CEF800C0FEF707FB00E0FFE7029802
:102DC00008B080BD80B584B00390029101200190CD
:102DD000039800900098002856D0FFE70098C06B39
:102DE000002851D0FFE70098C26B016C4FF0FF3014
:102DF000B0FBF2F0884247D3FFE7FFF7B9FC009938
:102E00000B68C86B0A6C00FB0230886000990020D8
:102E1000886300990868486000990B68C86B0A6C61
:102E2000013800FB0230C8600099FF2081F844009F
:102E3000009981F845000298D0B9FFE70098006931
:102E4000A0B1FFE70098103000F0F8FA60B1FFE79A
:102E50004EF60451CEF200014FF080500860BFF3EF
:102E60004F8FBFF36F8F00E0FFE700E0FFE708E060
:102E700000981030FFF7FEFB00982430FFF7FAFBB4
:102E8000FFE7FFF78DFC02E000200190FFE70198CB
:102E900004B080BD80B58AB00890079106920020EA
:102EA000059008980290FFE7FFF762FC0298806B9C
:102EB0000190019830B3FFE702980799FEF7B0F947
:102EC000019801380299886302980069A0B1FFE770
:102ED0000298103000F0B2FA60B1FFE74EF60451EC
:102EE000CEF200014FF080500860BFF34F8FBFF368
:102EF0006F8F00E0FFE700E0FFE7FFF751FC0120E4
:102F000009906DE0069828B9FFE7FFF749FC00201B
:102F1000099065E0059830B9FFE703A8FFF78AFD3F
:102F20000120059000E0FFE7FFE7FFE7FFF738FC2F
:102F3000FFF740FEFFF71CFC029890F944000130B7
:102F400028B9FFE70299002081F84400FFE70298C2
:102F500090F94500013028B9FFE70299002081F877
:102F60004500FFE7FFF71CFC03A806A900F03CF8AA
:102F700030BBFFE70298FEF7AFFBD0B1FFE7029846
:102F800024300699FFF770FD0298FEF78FFD00F0E0
:102F900013FB60B9FFE74EF60451CEF200014FF08B
:102FA00080500860BFF34F8FBFF36F8F00E0FFE7E3
:102FB00005E00298FEF77AFD00F0FEFAFFE70EE06A
:102FC0000298FEF773FD00F0F7FA0298FEF784FB13
:102FD00018B1FFE70020099002E0FFE7FFE763E791
:102FE00009980AB080BD000080B586B005900491B4
:102FF000FFF7BEFB42F60040C2F2000000680290FC
:10300000029805994968401A0190049800680130B7
:1030100018B9FFE7002003902EE042F6A830C2F274
:10302000000000680599096888420CD0FFE7029803
:1030300005994968884206D3FFE701200390049967
:103040000020086017E001980499096888420BD2B3
:10305000FFE7019A04990868801A08600598FFF74D
:10306000E9FC0020039005E004990020086001209D
:103070000390FFE7FFE7FFE7FFF792FB039806B037
:1030800080BD000070B58CB0DDF844C0DDF840C0F4
:103090000B900A91ADF826200893BDF82600800019
:1030A000FEF75CFD05900598A0B1FFE75C20FEF7F8
:1030B00055FD0790079840B1FFE707985C21FDF7A1
:1030C00098F805980799086303E00598FFF77CFBDB
:1030D000FFE702E000200790FFE70798F0B1FFE765
:1030E0000798002680F859600B980A99BDF82620A9
:1030F000089BDDF840C0119C079DEE46CEF80C60A1
:10310000CEF80850CEF80440CEF800C0FEF780F9A3
:103110000798FDF767FF0120069003E04FF0FF30AE
:103120000690FFE706980CB070BD0000B0B58AB0FD
:10313000DDF840C0DDF83CC0DDF838C009900891EA
:1031400007920693109840B3FFE70F9828B3FFE764
:103150001098059005985C21FDF74BF80F9805999C
:1031600008630599022081F8590009980899079A7F
:10317000069BDDF838C0059CEE460025CEF80C50C5
:10318000CEF8084004ACCEF80440CEF800C0FEF7FC
:103190003FF90598FDF726FF02E000200490FFE7C5
:1031A00004980AB0B0BD000081B042F6CC30C2F243
:1031B0000000006818B9FFE7012000900DE042F21E
:1031C0004470C2F20000006818B9FFE702200090C6
:1031D00002E000200090FFE7FFE7009801B0704791
:1031E00081B042F60040C2F20000006800900098F2
:1031F00001B0704780B588B00020059042F244705D
:10320000C2F200000068002840F00C81FFE742F69F
:103210000041C2F20001086801300490049808607F
:103220000498C0B9FFE740F2BC02C2F20002106885
:10323000039040F2C401C2F20001086810600398D4
:10324000086042F6A831C2F2000108680130086047
:10325000FEF79EFB00E0FFE7049842F6A431C2F2BD
:10326000000109688842C0F0BC80FFE7FFE740F238
:10327000BC00C2F200000068006840B9FFE742F6F7
:10328000A431C2F200014FF0FF300860A8E040F224
:10329000BC00C2F200000068C068C06807900798D0
:1032A0004068069004980699884207D2FFE706987E
:1032B00042F6A431C2F20001086091E0FFE70798EE
:1032C0004069029007988168C0688860079988689B
:1032D000C96848600298406807990431884205D15E
:1032E000FFE70798C06802994860FFE70799002048
:1032F000486102990868013808600798806AF8B147
:10330000FFE70798806A01900798C169006A8860A2
:103310000799C869096A4860019840680799183197
:10332000884205D1FFE70798006A01994860FFE7E6
:10333000079900208862019908680138086000E058
:10334000FFE70798C06A42F24C71C2F200010968B7
:10335000884208D9FFE70798C06A42F24C71C2F26E
:1033600000010860FFE70798C06A00EB800040F2A8
:10337000CC01C2F2000101EB80004068009000988F
:10338000079A906000988068079AD0600798043088
:10339000009A9268506007980430009A9060079AEB
:1033A000D06A00EB800001EB800050610798C06A92
:1033B00000EB800251F82200013041F8220007980A
:1033C000C06A40F2B401C2F200010968C96A8842C9
:1033D00003D9FFE70120059000E0FFE7FFE746E79C
:1033E000FFE740F2B400C2F200000068C06A00EBE0
:1033F000800140F2CC00C2F2000050F82100022807
:1034000003D3FFE70120059000E0FFE742F60C4000
:10341000C2F20000006818B1FFE70120059000E04B
:10342000FFE707E042F6B431C2F20001086801305C
:103430000860FFE7059808B080BD000087B00690DF
:103440000698C068C06805900598806A0390059842
:10345000C169006A88600599C869096A486003986B
:10346000406805991831884205D1FFE70598006A40
:1034700003994860FFE7059900208862039908686E
:103480000138086042F24470C2F20000006800286F
:103490005DD1FFE705984069029005988168C06892
:1034A000886005998868C9684860029840680599ED
:1034B0000431884205D1FFE70598C0680299486049
:1034C000FFE7059900204861029908680138086003
:1034D0000598C06A42F24C71C2F200010968884244
:1034E00008D9FFE70598C06A42F24C71C2F20001A8
:1034F0000860FFE70598C06A00EB800040F2CC014D
:10350000C2F2000101EB8000406801900198059A29
:10351000906001988068059AD06005980430019AFF
:103520009268506005980430019A9060059AD06ABC
:1035300000EB800001EB800050610598C06A00EB51
:10354000800251F82200013041F822001BE042F6CF
:10355000B831C2F20001486800900098059AD06125
:1035600000988068059A106205981830009A926851
:10357000506005981830009A90600598816208683C
:1035800001300860FFE70598C06A40F2B401C2F25A
:1035900000010968C96A884208D9FFE70120049040
:1035A00042F60C41C2F20001086002E000200490E3
:1035B000FFE7049807B0704780B586B000200590FB
:1035C0000490FFF7D5F842F24470C2F2000001689F
:1035D000013901600068002840F0ED80FFE742F209
:1035E0003C70C2F200000068002800F0E380FFE7B2
:1035F000FFE742F6B830C2F200000068002800F091
:103600009680FFE742F6B830C2F20000C068C0689A
:1036100005900598806A03900598C169006A8860E2
:103620000599C869096A4860039840680599183186
:10363000884205D1FFE70598006A03994860FFE7D3
:103640000599002088620399086801380860059888
:103650004069029005988168C0688860059988680B
:10366000C96848600298406805990431884205D1CC
:10367000FFE70598C06802994860FFE705990020B8
:10368000486102990868013808600598C06A42F2EA
:103690004C71C2F200010968884208D9FFE7059819
:1036A000C06A42F24C71C2F200010860FFE705985F
:1036B000C06A00EB800040F2CC01C2F2000101EBD5
:1036C0008000406801900198059A90600198806898
:1036D000059AD06005980430019A92685060059868
:1036E0000430019A9060059AD06A00EB800001EBEB
:1036F000800050610598C06A00EB800251F82200FA
:10370000013041F822000598C06A40F2B401C2F2CB
:1037100000010968C96A884207D3FFE742F60C41F5
:10372000C2F200010120086000E0FFE761E70598B0
:1037300018B1FFE7FEF72CF9FFE742F6B430C2F20A
:103740000000006800900098E0B1FFE7FFE7FFF796
:1037500051FD38B1FFE742F60C41C2F200010120F1
:10376000086000E0FFE7009801380090FFE700984C
:103770000028ECD1FFE742F6B431C2F2000100208C
:10378000086000E0FFE742F60C40C2F2000000686B
:1037900070B1FFE7012004904EF60451CEF2000113
:1037A0004FF080500860BFF34F8FBFF36F8F00E082
:1037B000FFE7FFE700E0FFE7FEF7F2FF049806B03F
:1037C00080BD000080B588B000200790FDF7BAFCEE
:1037D00042F60440C2F20000006858B3FFE7002040
:1037E00003900690059006A805A904AAFEF726FFF7
:1037F000039B049A0598DDF818C06946C1F808C013
:1038000048602820086041F68D20C0F6000044F290
:103810006C11C0F60001FFF789FC014642F6084032
:10382000C2F200000160006818B1FFE701200790B4
:10383000FFE700E0FFE7079808B080BD0FB4054B35
:1038400010B503A9044A029800F0DAF810BC5DF83C
:1038500014FB0000E50900080000002002E008C891
:10386000121F08C1002AFAD170477047002001E0FA
:1038700001C1121F002AFBD1704700002DE9FF5F34
:1038800082B00021DDE90430020DDDF840B00343D1
:1038900018D044F61050A2F2FF324243151411988A
:1038A00001281FD0A5EB0B00401C5FEA000A4FF077
:1038B00000064E4FDFF83891B046504615D5CAF194
:1038C000000413E0119801244AA3012801D16FEAF2
:1038D0000B010298119AC0E90031C0E9024206B01A
:1038E000BDE8F09FCBF10000DFE704460021404A2D
:1038F000491842EB0450CDE9001012E0E00707D070
:1039000032463B4640464946FCF76CFD80468946B8
:1039100032463B4610461946FCF764FD06460F4604
:103920006410002CEAD1DDE90401DDE90023BAF1DD
:10393000000F06DAFCF756FD42464B46FCF752FDF7
:1039400005E0FCF7C1FD42464B46FCF7BDFD0446D1
:103950000E460022284BFCF73FFE03D84FF0FF3005
:10396000014607E00022254B20463146FCF793FC38
:10397000FCF719FE102409E0002C0ADB0A220023C0
:10398000FCF758FC039B30321A55641E50EA0102C2
:10399000F2D1641C039AC4F111031444119A012A50
:1039A00003D0012208430DD10AE0084304D00020CF
:1039B0004FF0110B119072E7A3EB0B056D1E0DE09C
:1039C0005B4504DD4FF0000205F1010504E003DA78
:1039D0004FF00002A5F10105002AECD002981199E0
:1039E000C0E90231C0E9004579E700000000144059
:1039F0000000F03F300000000000F0430000E03F16
:103A00002DE9FF4F95B09B468946064600250FE2FB
:103A1000252877D100242746F84A0121059400E0A3
:103A2000044316F8013F203B01FA03F01042F7D19E
:103A300030782A2811D06FF02F033078A0F13002AF
:103A4000092A16D8059A44F0020402EB820203EB1D
:103A500042021044761C0590EFE759F8042B0592BA
:103A6000002A03DA504244F40054059044F0020462
:103A7000761C30782E2816D116F8010F44F0040475
:103A80002A280DD06FF02F023078A0F13003092BD7
:103A900009D807EB870302EB4303C718761CF3E74B
:103AA00059F8047B761C30786C280FD006DC4C2843
:103AB00017D068280DD06A2814D104E0742810D0DB
:103AC0007A280FD10DE044F400140AE044F4801485
:103AD00001E044F440147278824202D104F580146B
:103AE000761C761C307866280BD013DC582877D0EB
:103AF00009DC002875D04528F6D04628F4D04728A0
:103B00001AD19DE118E0632835D0642879D0652862
:103B100012D195E1702873D008DC6728F1D06928AC
:103B20006FD06E280DD06F2806D1B5E073282CD049
:103B3000752875D0782874D05A46179990476D1C0F
:103B400075E1C4F30250022809D003280DD0D9F83A
:103B5000001004280DD00D6009F1040967E1D9F8BF
:103B60000010EA17C1E90052F6E7D9F800100D80FD
:103B7000F2E70D70F0E719F8041B8DF80010002033
:103B80008DF80100EA46012003E059F804AB4FF03C
:103B9000FF3061074FF0000102D40DE008F1010190
:103BA0008846B9420FDA8045F8DB1AF80810002978
:103BB000F4D108E008F1010188468142FADB1AF8E5
:103BC00008100029F6D105985B46A0EB08072146AE
:103BD0003846179A00F094FA284400EB080507E0ED
:103BE0004DE029E10DE01AF8010B5A46179990476C
:103BF000B8F10108F7D25B4621463846179A13E11F
:103C000042E00A220092C4F302524FF0000A022A54
:103C100008D059F804CB032A4FEAEC710AD00DE022
:103C200029E02AE009F1070121F00702F2E802C1C8
:103C3000914609E00FFA8CFC4FEAEC71042A03D19B
:103C40004FFA8CFC4FEAEC71002907DA0A46002192
:103C5000DCF1000C61EB02012D2202E0220504D50B
:103C60002B228DF80420012203E0E20701D020225C
:103C7000F7E7904659E00A2102E010220DE01021FA
:103C80004FF0000A00910BE010224FF0000A44F0C0
:103C900004040827009203E008224FF0000A009273
:103CA000C4F30252022A05D059F804CB0021032A9A
:103CB00008D009E009F1070121F00702F2E802C18A
:103CC000914605E01FFA8CFC042A01D10CF0FF0C90
:103CD0004FF00008220728D5702806D0009B83F0FB
:103CE000100353EA0A0305D00EE040228DF80420A9
:103CF000012208E05CEA010206D030228DF804209F
:103D00008DF8050002229046009B83F0080353EAD9
:103D10000A030AD15CEA010201D1620705D530220B
:103D20008DF804204FF001087F1E582804D034A0DD
:103D300003900EA802900DE036A0F9E753466046C6
:103D4000009AFCF777FA84460398825C0298401E3A
:103D5000029002705CEA0100F0D1029806A9081AEC
:103D600000F1200A600702D524F4803400E0012726
:103D7000574502DDA7EB0A0000E0002000EB0A0136
:103D8000009005984144401A0590E00306D45B4634
:103D90002146179A059800F0B3F90544002706E07C
:103DA00001A85A46C05D179990476D1C7F1C474576
:103DB000F6DBE0030CD55B462146179A059800F028
:103DC0009FF9054404E030205A46179990476D1C2E
:103DD0000099481E00900029F5DC08E0029802993D
:103DE0005A460078491C0291179990476D1CBAF108
:103DF0000001AAF1010AF1DC65E1000009280100D7
:103E00003031323334353637383961626364656650
:103E10000000000030313233343536373839414212
:103E2000434445460000000000F058F90544761C64
:103E3000307800287FF4ECAD19B02846BDE8F08F4B
:103E4000620700D4062709F1070222F0070CFCE8FC
:103E50000223E14603F000485FEA080C02D00FF2AB
:103E6000702C0DE05FEA045C02D50FF2682C07E0CD
:103E70005FEAC47C02D00FF2602C01E0AFF2700C5C
:103E80004FF0FF3823F00043CDF850C065280CD028
:103E900006DC452809D046281DD047283DD13DE005
:103EA000662818D067287ED138E00021112F01DB69
:103EB000112000E0781CCDE9000106A90EA8FFF74B
:103EC000DDFCDDE90F010E9A03910021009207F15C
:103ED000010A04914DE04FF000400097CDE9011038
:103EE00006A90EA8FFF7CAFCDDE90F0203920E9B9C
:103EF00011990022DDF80CA00093049211B9791CED
:103F000000EB010AB7EB0A0004D4C0F1FF3007F15F
:103F1000010A0490AAEB0700019044E0012F00DAA7
:103F200001270021112F01DD112000E03846CDE9E5
:103F3000000106A90EA8FFF7A1FCDDE90F010E9A0A
:103F40000391002104910092BA4621070CD40399F1
:103F5000514500DA8A46BAF1010F05DD009AAAF14F
:103F60000101515C302908D0B84202DA10F1040F87
:103F700006DA0121CDE9011015E0AAF10101E9E716
:103F8000002805DC049901440491AAEB000102E039
:103F9000411C514500DD8A460499401A401C01909D
:103FA0004FF000400290200704D40198504501DBF7
:103FB000CDF8048000208DF84F0002980DF14F07D6
:103FC000B0F1004F25D02B200E9002984FF0020840
:103FD00000280CDA404202902D200E9007E00A21C2
:103FE0000298FCF711F93031029007F8011DB8F181
:103FF0000001A8F10108F2DC02980028EFD1791E37
:104000000E980870307800F0200040F0450007F866
:10401000020D12A8C01B00F107081498007800B127
:10402000012000EB0A01019801EBE0710598414481
:10403000401A401E0590E00306D45B462146179ABD
:10404000059800F05DF805441498007818B15A46B8
:10405000179990476D1CE00324D55B462146179ABB
:10406000059800F04DF805441CE00498002807DB93
:10407000DDE90301884203DD0098405C179901E007
:10408000179930205A469047049805F10105401CC5
:1040900004900198401E019004D12E205A46179991
:1040A00090476D1CBAF10001AAF1010ADDDC05E0C0
:1040B00017F8010B5A46179990476D1CB8F100018B
:1040C000A8F10108F4DC5B462146179A0598ABE697
:1040D0002D0000002B000000200000002DE9F04121
:1040E000044600251E461746880404D405E03946D8
:1040F0002020B0476D1C641EF9D52846BDE8F0812C
:104100002DE9F041044600251E469046C80301D51E
:10411000302700E02027880404D505E041463846D2
:10412000B0476D1C641EF9D52846BDE8F081746166
:10413000736B312025640D0A007461736B32202586
:10414000640D0A006D63752073746172740D0A004A
:104150007461736B31007461736B320073746172DC
:10416000745F7461736B0049444C4500546D722058
:1041700053766300370000009841000800000020DB
:10418000100000005C380008A84100081000002062
:10419000003000006C38000800000000007A030ABC
:0841A000AAAAAAAA000000006F
:040000050800018965
:00000001FF
